{
  "transactions": [
    {
      "hash": "0x5f9a7a7cd1a41b841e31f0897543b39afed70f32fc36ac9bcb82987c2ac7b6a6",
      "transactionType": "CALL",
      "contractName": null,
      "contractAddress": "0x1f73518659dfb4e6d2c40ee31538cc427386c76b",
      "function": "issueCredential(address,uint8,string,string,string,uint256)",
      "arguments": [
        "0xBb9f2f4C9A508701dde03e8d591D67992E35A61b",
        "1",
        "0xPHARM123456",
        "Retail Pharmacy",
        "QmPharmacistMetadata",
        "5"
      ],
      "transaction": {
        "from": "0x0e1366113bb38cd76f792642d1a1168024c6970a",
        "to": "0x1f73518659dfb4e6d2c40ee31538cc427386c76b",
        "gas": "0x5f658",
        "value": "0x0",
        "input": "0x19ee5091000000000000000000000000bb9f2f4c9a508701dde03e8d591d67992e35a61b000000000000000000000000000000000000000000000000000000000000000100000000000000000000000000000000000000000000000000000000000000c0000000000000000000000000000000000000000000000000000000000000010000000000000000000000000000000000000000000000000000000000000001400000000000000000000000000000000000000000000000000000000000000005000000000000000000000000000000000000000000000000000000000000000d3078504841524d31323334353600000000000000000000000000000000000000000000000000000000000000000000000000000000000000000000000000000f52657461696c20506861726d61637900000000000000000000000000000000000000000000000000000000000000000000000000000000000000000000000014516d506861726d61636973744d65746164617461000000000000000000000000",
        "nonce": "0xe",
        "chainId": "0x14a34"
      },
      "additionalContracts": [],
      "isFixedGasLimit": false
    },
    {
      "hash": "0xa855ba6abc5f453c3b39ba046cff6963f85b0a2e57b9f70885e1fd05ab01c722",
      "transactionType": "CALL",
      "contractName": null,
      "contractAddress": "0x1f73518659dfb4e6d2c40ee31538cc427386c76b",
      "function": "issueCredential(address,uint8,string,string,string,uint256)",
      "arguments": [
        "0x18a7Fe083A143f45d524EE8f055c0a027534D2A0",
        "0",
        "0x1234567890abcdef",
        "General Practice",
        "QmTestMetadataURI",
        "5"
      ],
      "transaction": {
        "from": "0x0e1366113bb38cd76f792642d1a1168024c6970a",
        "to": "0x1f73518659dfb4e6d2c40ee31538cc427386c76b",
        "gas": "0x52ed7",
        "value": "0x0",
        "input": "0x19ee509100000000000000000000000018a7fe083a143f45d524ee8f055c0a027534d2a0000000000000000000000000000000000000000000000000000000000000000000000000000000000000000000000000000000000000000000000000000000c000000000000000000000000000000000000000000000000000000000000001000000000000000000000000000000000000000000000000000000000000000140000000000000000000000000000000000000000000000000000000000000000500000000000000000000000000000000000000000000000000000000000000123078313233343536373839306162636465660000000000000000000000000000000000000000000000000000000000000000000000000000000000000000001047656e6572616c205072616374696365000000000000000000000000000000000000000000000000000000000000000000000000000000000000000000000011516d546573744d65746164617461555249000000000000000000000000000000",
        "nonce": "0xf",
        "chainId": "0x14a34"
      },
      "additionalContracts": [],
      "isFixedGasLimit": false
    }
  ],
  "receipts": [
    {
      "status": "0x1",
      "cumulativeGasUsed": "0x384fe8",
      "logs": [
        {
          "address": "0x1f73518659dfb4e6d2c40ee31538cc427386c76b",
          "topics": [
            "0xddf252ad1be2c89b69c2b068fc378daa952ba7f163c4a11628f55a4df523b3ef",
            "0x0000000000000000000000000000000000000000000000000000000000000000",
            "0x000000000000000000000000bb9f2f4c9a508701dde03e8d591d67992e35a61b",
            "0x0000000000000000000000000000000000000000000000000000000000000001"
          ],
          "data": "0x",
          "blockHash": "0x983619d4461975bdde6b0b3d1e4d2e5f67879fb9d0ba5f868b42dcd089cf0c64",
          "blockNumber": "0x1f4f83a",
          "blockTimestamp": "0x68fd4f54",
          "transactionHash": "0x5f9a7a7cd1a41b841e31f0897543b39afed70f32fc36ac9bcb82987c2ac7b6a6",
          "transactionIndex": "0x27",
          "logIndex": "0x6f",
          "removed": false
        },
        {
          "address": "0x1f73518659dfb4e6d2c40ee31538cc427386c76b",
          "topics": [
            "0x3e7916238a5ef36003b9b43c6bc35831faf9f27563523aca012d057025b22ffb",
            "0x0000000000000000000000000000000000000000000000000000000000000001",
            "0x000000000000000000000000bb9f2f4c9a508701dde03e8d591d67992e35a61b"
          ],
          "data": "0x0000000000000000000000000000000000000000000000000000000000000001000000000000000000000000000000000000000000000000000000000000008000000000000000000000000000000000000000000000000000000000000000c000000000000000000000000000000000000000000000000000000000726350d4000000000000000000000000000000000000000000000000000000000000000f52657461696c20506861726d61637900000000000000000000000000000000000000000000000000000000000000000000000000000000000000000000000014516d506861726d61636973744d65746164617461000000000000000000000000",
          "blockHash": "0x983619d4461975bdde6b0b3d1e4d2e5f67879fb9d0ba5f868b42dcd089cf0c64",
          "blockNumber": "0x1f4f83a",
          "blockTimestamp": "0x68fd4f54",
          "transactionHash": "0x5f9a7a7cd1a41b841e31f0897543b39afed70f32fc36ac9bcb82987c2ac7b6a6",
          "transactionIndex": "0x27",
          "logIndex": "0x70",
          "removed": false
        }
      ],
      "logsBloom": "0x00000000000000000000000000000000000000000008000000000000000000000000000000000000000000000000000000000000000000000000000000040000000000000000000000000008000000000000000000040000000000000000000000000000020000000000000000000800000000000800000000000010000000000000000000000000000000000000000000000000000000000008000000000000000000000000000000000000000000000000000000000000000000000000000000000012200000000008000000000000000000000000000000000200000060000000000000000000000000000800000000000080000000000000000000000000",
      "type": "0x0",
      "transactionHash": "0x5f9a7a7cd1a41b841e31f0897543b39afed70f32fc36ac9bcb82987c2ac7b6a6",
      "transactionIndex": "0x27",
      "blockHash": "0x983619d4461975bdde6b0b3d1e4d2e5f67879fb9d0ba5f868b42dcd089cf0c64",
      "blockNumber": "0x1f4f83a",
      "gasUsed": "0x4510d",
      "effectiveGasPrice": "0xf427b",
      "from": "0x0e1366113bb38cd76f792642d1a1168024c6970a",
      "to": "0x1f73518659dfb4e6d2c40ee31538cc427386c76b",
      "contractAddress": null,
      "l1BaseFeeScalar": "0x44d",
      "l1BlobBaseFee": "0x1",
      "l1BlobBaseFeeScalar": "0xa118b",
      "l1Fee": "0x50",
      "l1GasPrice": "0x8",
      "l1GasUsed": "0xa4d"
    },
    {
      "status": "0x1",
      "cumulativeGasUsed": "0x3c1085",
      "logs": [
        {
          "address": "0x1f73518659dfb4e6d2c40ee31538cc427386c76b",
          "topics": [
            "0xddf252ad1be2c89b69c2b068fc378daa952ba7f163c4a11628f55a4df523b3ef",
            "0x0000000000000000000000000000000000000000000000000000000000000000",
            "0x00000000000000000000000018a7fe083a143f45d524ee8f055c0a027534d2a0",
            "0x0000000000000000000000000000000000000000000000000000000000000002"
          ],
          "data": "0x",
          "blockHash": "0x983619d4461975bdde6b0b3d1e4d2e5f67879fb9d0ba5f868b42dcd089cf0c64",
          "blockNumber": "0x1f4f83a",
          "blockTimestamp": "0x68fd4f54",
          "transactionHash": "0xa855ba6abc5f453c3b39ba046cff6963f85b0a2e57b9f70885e1fd05ab01c722",
          "transactionIndex": "0x28",
          "logIndex": "0x71",
          "removed": false
        },
        {
          "address": "0x1f73518659dfb4e6d2c40ee31538cc427386c76b",
          "topics": [
            "0x3e7916238a5ef36003b9b43c6bc35831faf9f27563523aca012d057025b22ffb",
            "0x0000000000000000000000000000000000000000000000000000000000000002",
            "0x00000000000000000000000018a7fe083a143f45d524ee8f055c0a027534d2a0"
          ],
          "data": "0x0000000000000000000000000000000000000000000000000000000000000000000000000000000000000000000000000000000000000000000000000000008000000000000000000000000000000000000000000000000000000000000000c000000000000000000000000000000000000000000000000000000000726350d4000000000000000000000000000000000000000000000000000000000000001047656e6572616c205072616374696365000000000000000000000000000000000000000000000000000000000000000000000000000000000000000000000011516d546573744d65746164617461555249000000000000000000000000000000",
          "blockHash": "0x983619d4461975bdde6b0b3d1e4d2e5f67879fb9d0ba5f868b42dcd089cf0c64",
          "blockNumber": "0x1f4f83a",
          "blockTimestamp": "0x68fd4f54",
          "transactionHash": "0xa855ba6abc5f453c3b39ba046cff6963f85b0a2e57b9f70885e1fd05ab01c722",
          "transactionIndex": "0x28",
          "logIndex": "0x72",
          "removed": false
        }
      ],
      "logsBloom": "0x04000000000000000000000000000000000000000008000000000000000000000000000000000000000000000000000000000040000000000000000000000000000000000000000000000008000000000000000000000000000000000000000000000000020000000000000000000800000000040000000000000010000000008000000000000000000000000000000000000000000000000000000000000000000000000000000000000100000000000000000000000000000000000000000000000012200000000008000000000000000000000000000000000000000020000000000000000000000000000800000000000080008000000000000000000000",
      "type": "0x0",
      "transactionHash": "0xa855ba6abc5f453c3b39ba046cff6963f85b0a2e57b9f70885e1fd05ab01c722",
      "transactionIndex": "0x28",
      "blockHash": "0x983619d4461975bdde6b0b3d1e4d2e5f67879fb9d0ba5f868b42dcd089cf0c64",
      "blockNumber": "0x1f4f83a",
      "gasUsed": "0x3c09d",
      "effectiveGasPrice": "0xf427b",
      "from": "0x0e1366113bb38cd76f792642d1a1168024c6970a",
      "to": "0x1f73518659dfb4e6d2c40ee31538cc427386c76b",
      "contractAddress": null,
      "l1BaseFeeScalar": "0x44d",
      "l1BlobBaseFee": "0x1",
      "l1BlobBaseFeeScalar": "0xa118b",
      "l1Fee": "0x50",
      "l1GasPrice": "0x8",
      "l1GasUsed": "0xa25"
    }
  ],
  "libraries": [],
  "pending": [],
  "returns": {},
  "timestamp": 1761431379124,
  "chain": 84532,
  "commit": null
}